{
  "_format": "hh-sol-artifact-1",
  "contractName": "Token721",
  "sourceName": "contracts/Token721.sol",
  "abi": [
    {
      "inputs": [
        {
          "internalType": "string",
          "name": "_name",
          "type": "string"
        },
        {
          "internalType": "string",
          "name": "_symbol",
          "type": "string"
        },
        {
          "internalType": "string",
          "name": "_metadataURI",
          "type": "string"
        },
        {
          "internalType": "enum LicenseVersion",
          "name": "_license",
          "type": "uint8"
        }
      ],
      "stateMutability": "nonpayable",
      "type": "constructor"
    },
    {
      "anonymous": false,
      "inputs": [
        {
          "indexed": true,
          "internalType": "address",
          "name": "owner",
          "type": "address"
        },
        {
          "indexed": true,
          "internalType": "address",
          "name": "approved",
          "type": "address"
        },
        {
          "indexed": true,
          "internalType": "uint256",
          "name": "tokenId",
          "type": "uint256"
        }
      ],
      "name": "Approval",
      "type": "event"
    },
    {
      "anonymous": false,
      "inputs": [
        {
          "indexed": true,
          "internalType": "address",
          "name": "owner",
          "type": "address"
        },
        {
          "indexed": true,
          "internalType": "address",
          "name": "operator",
          "type": "address"
        },
        {
          "indexed": false,
          "internalType": "bool",
          "name": "approved",
          "type": "bool"
        }
      ],
      "name": "ApprovalForAll",
      "type": "event"
    },
    {
      "anonymous": false,
      "inputs": [
        {
          "indexed": false,
          "internalType": "string",
          "name": "_metadataUri",
          "type": "string"
        }
      ],
      "name": "MetadataUriChanged",
      "type": "event"
    },
    {
      "anonymous": false,
      "inputs": [
        {
          "indexed": false,
          "internalType": "uint256",
          "name": "_tokenId",
          "type": "uint256"
        },
        {
          "indexed": false,
          "internalType": "string",
          "name": "_tokenURI",
          "type": "string"
        }
      ],
      "name": "TokenMinted",
      "type": "event"
    },
    {
      "anonymous": false,
      "inputs": [
        {
          "indexed": true,
          "internalType": "address",
          "name": "from",
          "type": "address"
        },
        {
          "indexed": true,
          "internalType": "address",
          "name": "to",
          "type": "address"
        },
        {
          "indexed": true,
          "internalType": "uint256",
          "name": "tokenId",
          "type": "uint256"
        }
      ],
      "name": "Transfer",
      "type": "event"
    },
    {
      "inputs": [
        {
          "internalType": "address",
          "name": "to",
          "type": "address"
        },
        {
          "internalType": "uint256",
          "name": "tokenId",
          "type": "uint256"
        }
      ],
      "name": "approve",
      "outputs": [],
      "stateMutability": "nonpayable",
      "type": "function"
    },
    {
      "inputs": [
        {
          "internalType": "address",
          "name": "owner",
          "type": "address"
        }
      ],
      "name": "balanceOf",
      "outputs": [
        {
          "internalType": "uint256",
          "name": "",
          "type": "uint256"
        }
      ],
      "stateMutability": "view",
      "type": "function"
    },
    {
      "inputs": [
        {
          "internalType": "uint256",
          "name": "tokenId",
          "type": "uint256"
        }
      ],
      "name": "getApproved",
      "outputs": [
        {
          "internalType": "address",
          "name": "",
          "type": "address"
        }
      ],
      "stateMutability": "view",
      "type": "function"
    },
    {
      "inputs": [],
      "name": "getCreatorAddress",
      "outputs": [
        {
          "internalType": "address",
          "name": "",
          "type": "address"
        }
      ],
      "stateMutability": "view",
      "type": "function"
    },
    {
      "inputs": [],
      "name": "getLicenseName",
      "outputs": [
        {
          "internalType": "string",
          "name": "",
          "type": "string"
        }
      ],
      "stateMutability": "view",
      "type": "function"
    },
    {
      "inputs": [],
      "name": "getLicenseURI",
      "outputs": [
        {
          "internalType": "string",
          "name": "",
          "type": "string"
        }
      ],
      "stateMutability": "view",
      "type": "function"
    },
    {
      "inputs": [
        {
          "internalType": "address",
          "name": "owner",
          "type": "address"
        },
        {
          "internalType": "address",
          "name": "operator",
          "type": "address"
        }
      ],
      "name": "isApprovedForAll",
      "outputs": [
        {
          "internalType": "bool",
          "name": "",
          "type": "bool"
        }
      ],
      "stateMutability": "view",
      "type": "function"
    },
    {
      "inputs": [
        {
          "internalType": "address",
          "name": "to_",
          "type": "address"
        },
        {
          "internalType": "string",
          "name": "tokenURI_",
          "type": "string"
        }
      ],
      "name": "mint",
      "outputs": [],
      "stateMutability": "nonpayable",
      "type": "function"
    },
    {
      "inputs": [],
      "name": "name",
      "outputs": [
        {
          "internalType": "string",
          "name": "",
          "type": "string"
        }
      ],
      "stateMutability": "view",
      "type": "function"
    },
    {
      "inputs": [
        {
          "internalType": "uint256",
          "name": "tokenId",
          "type": "uint256"
        }
      ],
      "name": "ownerOf",
      "outputs": [
        {
          "internalType": "address",
          "name": "",
          "type": "address"
        }
      ],
      "stateMutability": "view",
      "type": "function"
    },
    {
      "inputs": [
        {
          "internalType": "address",
          "name": "from",
          "type": "address"
        },
        {
          "internalType": "address",
          "name": "to",
          "type": "address"
        },
        {
          "internalType": "uint256",
          "name": "tokenId",
          "type": "uint256"
        }
      ],
      "name": "safeTransferFrom",
      "outputs": [],
      "stateMutability": "nonpayable",
      "type": "function"
    },
    {
      "inputs": [
        {
          "internalType": "address",
          "name": "from",
          "type": "address"
        },
        {
          "internalType": "address",
          "name": "to",
          "type": "address"
        },
        {
          "internalType": "uint256",
          "name": "tokenId",
          "type": "uint256"
        },
        {
          "internalType": "bytes",
          "name": "data",
          "type": "bytes"
        }
      ],
      "name": "safeTransferFrom",
      "outputs": [],
      "stateMutability": "nonpayable",
      "type": "function"
    },
    {
      "inputs": [
        {
          "internalType": "address",
          "name": "operator",
          "type": "address"
        },
        {
          "internalType": "bool",
          "name": "approved",
          "type": "bool"
        }
      ],
      "name": "setApprovalForAll",
      "outputs": [],
      "stateMutability": "nonpayable",
      "type": "function"
    },
    {
      "inputs": [
        {
          "internalType": "string",
          "name": "_metadataURI",
          "type": "string"
        }
      ],
      "name": "setCollectionMetadataURI",
      "outputs": [],
      "stateMutability": "nonpayable",
      "type": "function"
    },
    {
      "inputs": [
        {
          "internalType": "bytes4",
          "name": "interfaceId",
          "type": "bytes4"
        }
      ],
      "name": "supportsInterface",
      "outputs": [
        {
          "internalType": "bool",
          "name": "",
          "type": "bool"
        }
      ],
      "stateMutability": "view",
      "type": "function"
    },
    {
      "inputs": [],
      "name": "symbol",
      "outputs": [
        {
          "internalType": "string",
          "name": "",
          "type": "string"
        }
      ],
      "stateMutability": "view",
      "type": "function"
    },
    {
      "inputs": [
        {
          "internalType": "uint256",
          "name": "tokenId",
          "type": "uint256"
        }
      ],
      "name": "tokenURI",
      "outputs": [
        {
          "internalType": "string",
          "name": "",
          "type": "string"
        }
      ],
      "stateMutability": "view",
      "type": "function"
    },
    {
      "inputs": [
        {
          "internalType": "address",
          "name": "from",
          "type": "address"
        },
        {
          "internalType": "address",
          "name": "to",
          "type": "address"
        },
        {
          "internalType": "uint256",
          "name": "tokenId",
          "type": "uint256"
        }
      ],
      "name": "transferFrom",
      "outputs": [],
      "stateMutability": "nonpayable",
      "type": "function"
    }
  ],
  "bytecode": "0x608060405260006009553480156200001657600080fd5b50604051620035d4380380620035d483398181016040528101906200003c919062000382565b8084848160009080519060200190620000579291906200010d565b508060019080519060200190620000709291906200010d565b505050600160078190555080600860006101000a81548160ff02191690836005811115620000a357620000a262000451565b5b02179055505032600a60006101000a81548173ffffffffffffffffffffffffffffffffffffffff021916908373ffffffffffffffffffffffffffffffffffffffff16021790555081600b9080519060200190620001029291906200010d565b5050505050620004e4565b8280546200011b90620004af565b90600052602060002090601f0160209004810192826200013f57600085556200018b565b82601f106200015a57805160ff19168380011785556200018b565b828001600101855582156200018b579182015b828111156200018a5782518255916020019190600101906200016d565b5b5090506200019a91906200019e565b5090565b5b80821115620001b95760008160009055506001016200019f565b5090565b6000604051905090565b600080fd5b600080fd5b600080fd5b600080fd5b6000601f19601f8301169050919050565b7f4e487b7100000000000000000000000000000000000000000000000000000000600052604160045260246000fd5b6200022682620001db565b810181811067ffffffffffffffff82111715620002485762000247620001ec565b5b80604052505050565b60006200025d620001bd565b90506200026b82826200021b565b919050565b600067ffffffffffffffff8211156200028e576200028d620001ec565b5b6200029982620001db565b9050602081019050919050565b60005b83811015620002c6578082015181840152602081019050620002a9565b83811115620002d6576000848401525b50505050565b6000620002f3620002ed8462000270565b62000251565b905082815260208101848484011115620003125762000311620001d6565b5b6200031f848285620002a6565b509392505050565b600082601f8301126200033f576200033e620001d1565b5b815162000351848260208601620002dc565b91505092915050565b600681106200036857600080fd5b50565b6000815190506200037c816200035a565b92915050565b600080600080608085870312156200039f576200039e620001c7565b5b600085015167ffffffffffffffff811115620003c057620003bf620001cc565b5b620003ce8782880162000327565b945050602085015167ffffffffffffffff811115620003f257620003f1620001cc565b5b620004008782880162000327565b935050604085015167ffffffffffffffff811115620004245762000423620001cc565b5b620004328782880162000327565b925050606062000445878288016200036b565b91505092959194509250565b7f4e487b7100000000000000000000000000000000000000000000000000000000600052602160045260246000fd5b7f4e487b7100000000000000000000000000000000000000000000000000000000600052602260045260246000fd5b60006002820490506001821680620004c857607f821691505b602082108103620004de57620004dd62000480565b5b50919050565b6130e080620004f46000396000f3fe608060405234801561001057600080fd5b50600436106101165760003560e01c806395d89b41116100a2578063c7db289311610071578063c7db2893146102df578063c87b56dd146102fd578063d0def5211461032d578063e985e9c514610349578063ebc349ee1461037957610116565b806395d89b411461026b578063a22cb46514610289578063a341793b146102a5578063b88d4fde146102c357610116565b806323b872dd116100e957806323b872dd146101b557806342842e0e146101d15780636352211e146101ed57806370a082311461021d57806394d2d7a71461024d57610116565b806301ffc9a71461011b57806306fdde031461014b578063081812fc14610169578063095ea7b314610199575b600080fd5b61013560048036038101906101309190611f01565b610395565b6040516101429190611f49565b60405180910390f35b6101536103b7565b6040516101609190611ffd565b60405180910390f35b610183600480360381019061017e9190612055565b610449565b60405161019091906120c3565b60405180910390f35b6101b360048036038101906101ae919061210a565b61048f565b005b6101cf60048036038101906101ca919061214a565b6105a6565b005b6101eb60048036038101906101e6919061214a565b610606565b005b61020760048036038101906102029190612055565b610626565b60405161021491906120c3565b60405180910390f35b6102376004803603810190610232919061219d565b6106d7565b60405161024491906121d9565b60405180910390f35b61025561078e565b60405161026291906120c3565b60405180910390f35b6102736107b8565b6040516102809190611ffd565b60405180910390f35b6102a3600480360381019061029e9190612220565b61084a565b005b6102ad610860565b6040516102ba9190611ffd565b60405180910390f35b6102dd60048036038101906102d89190612395565b61087f565b005b6102e76108e1565b6040516102f49190611ffd565b60405180910390f35b61031760048036038101906103129190612055565b61094b565b6040516103249190611ffd565b60405180910390f35b610347600480360381019061034291906124b9565b610a5d565b005b610363600480360381019061035e9190612515565b610bb3565b6040516103709190611f49565b60405180910390f35b610393600480360381019061038e9190612555565b610c47565b005b60006103a082610d28565b806103b057506103af82610da2565b5b9050919050565b6060600080546103c6906125cd565b80601f01602080910402602001604051908101604052809291908181526020018280546103f2906125cd565b801561043f5780601f106104145761010080835404028352916020019161043f565b820191906000526020600020905b81548152906001019060200180831161042257829003601f168201915b5050505050905090565b600061045482610e84565b6004600083815260200190815260200160002060009054906101000a900473ffffffffffffffffffffffffffffffffffffffff169050919050565b600061049a82610626565b90508073ffffffffffffffffffffffffffffffffffffffff168373ffffffffffffffffffffffffffffffffffffffff160361050a576040517f08c379a000000000000000000000000000000000000000000000000000000000815260040161050190612670565b60405180910390fd5b8073ffffffffffffffffffffffffffffffffffffffff16610529610ecf565b73ffffffffffffffffffffffffffffffffffffffff161480610558575061055781610552610ecf565b610bb3565b5b610597576040517f08c379a000000000000000000000000000000000000000000000000000000000815260040161058e90612702565b60405180910390fd5b6105a18383610ed7565b505050565b6105b76105b1610ecf565b82610f90565b6105f6576040517f08c379a00000000000000000000000000000000000000000000000000000000081526004016105ed90612794565b60405180910390fd5b610601838383611025565b505050565b6106218383836040518060200160405280600081525061087f565b505050565b6000806002600084815260200190815260200160002060009054906101000a900473ffffffffffffffffffffffffffffffffffffffff169050600073ffffffffffffffffffffffffffffffffffffffff168173ffffffffffffffffffffffffffffffffffffffff16036106ce576040517f08c379a00000000000000000000000000000000000000000000000000000000081526004016106c590612800565b60405180910390fd5b80915050919050565b60008073ffffffffffffffffffffffffffffffffffffffff168273ffffffffffffffffffffffffffffffffffffffff1603610747576040517f08c379a000000000000000000000000000000000000000000000000000000000815260040161073e90612892565b60405180910390fd5b600360008373ffffffffffffffffffffffffffffffffffffffff1673ffffffffffffffffffffffffffffffffffffffff168152602001908152602001600020549050919050565b6000600a60009054906101000a900473ffffffffffffffffffffffffffffffffffffffff16905090565b6060600180546107c7906125cd565b80601f01602080910402602001604051908101604052809291908181526020018280546107f3906125cd565b80156108405780601f1061081557610100808354040283529160200191610840565b820191906000526020600020905b81548152906001019060200180831161082357829003601f168201915b5050505050905090565b61085c610855610ecf565b838361128b565b5050565b606061087a600860009054906101000a900460ff166113f7565b905090565b61089061088a610ecf565b83610f90565b6108cf576040517f08c379a00000000000000000000000000000000000000000000000000000000081526004016108c690612794565b60405180910390fd5b6108db84848484611667565b50505050565b606060405180606001604052806031815260200161307a60319139610926600860009054906101000a900460ff166005811115610921576109206128b2565b5b6116c3565b60405160200161093792919061291d565b604051602081830303815290604052905090565b606061095682610e84565b6000600660008481526020019081526020016000208054610976906125cd565b80601f01602080910402602001604051908101604052809291908181526020018280546109a2906125cd565b80156109ef5780601f106109c4576101008083540402835291602001916109ef565b820191906000526020600020905b8154815290600101906020018083116109d257829003601f168201915b505050505090506000610a00611823565b90506000815103610a15578192505050610a58565b600082511115610a4a578082604051602001610a3292919061291d565b60405160208183030381529060405292505050610a58565b610a538461183a565b925050505b919050565b3373ffffffffffffffffffffffffffffffffffffffff16600a60009054906101000a900473ffffffffffffffffffffffffffffffffffffffff1673ffffffffffffffffffffffffffffffffffffffff1614610aed576040517f08c379a0000000000000000000000000000000000000000000000000000000008152600401610ae49061298d565b60405180910390fd5b600260075403610b32576040517f08c379a0000000000000000000000000000000000000000000000000000000008152600401610b29906129f9565b60405180910390fd5b600260078190555060096000815480929190610b4d90612a48565b919050555060006009549050610b6383826118a2565b610b6d81836118c0565b7fac60a09674f049f6a63c51f373fb7febaf74a582f3a9f82cd39275be73988d218183604051610b9e929190612a90565b60405180910390a15060016007819055505050565b6000600560008473ffffffffffffffffffffffffffffffffffffffff1673ffffffffffffffffffffffffffffffffffffffff16815260200190815260200160002060008373ffffffffffffffffffffffffffffffffffffffff1673ffffffffffffffffffffffffffffffffffffffff16815260200190815260200160002060009054906101000a900460ff16905092915050565b3373ffffffffffffffffffffffffffffffffffffffff16600a60009054906101000a900473ffffffffffffffffffffffffffffffffffffffff1673ffffffffffffffffffffffffffffffffffffffff1614610cd7576040517f08c379a0000000000000000000000000000000000000000000000000000000008152600401610cce9061298d565b60405180910390fd5b80600b9080519060200190610ced929190611df2565b507fbf212f907e9933754ffa70bbc0251a1fe289759b6660bff05ba9c028bfda364b81604051610d1d9190611ffd565b60405180910390a150565b60007f649a51a8000000000000000000000000000000000000000000000000000000007bffffffffffffffffffffffffffffffffffffffffffffffffffffffff1916827bffffffffffffffffffffffffffffffffffffffffffffffffffffffff19161480610d9b5750610d9a82610da2565b5b9050919050565b60007f80ac58cd000000000000000000000000000000000000000000000000000000007bffffffffffffffffffffffffffffffffffffffffffffffffffffffff1916827bffffffffffffffffffffffffffffffffffffffffffffffffffffffff19161480610e6d57507f5b5e139f000000000000000000000000000000000000000000000000000000007bffffffffffffffffffffffffffffffffffffffffffffffffffffffff1916827bffffffffffffffffffffffffffffffffffffffffffffffffffffffff1916145b80610e7d5750610e7c82611934565b5b9050919050565b610e8d8161199e565b610ecc576040517f08c379a0000000000000000000000000000000000000000000000000000000008152600401610ec390612800565b60405180910390fd5b50565b600033905090565b816004600083815260200190815260200160002060006101000a81548173ffffffffffffffffffffffffffffffffffffffff021916908373ffffffffffffffffffffffffffffffffffffffff160217905550808273ffffffffffffffffffffffffffffffffffffffff16610f4a83610626565b73ffffffffffffffffffffffffffffffffffffffff167f8c5be1e5ebec7d5bd14f71427d1e84f3dd0314c0f7b2291e5b200ac8c7c3b92560405160405180910390a45050565b600080610f9c83610626565b90508073ffffffffffffffffffffffffffffffffffffffff168473ffffffffffffffffffffffffffffffffffffffff161480610fde5750610fdd8185610bb3565b5b8061101c57508373ffffffffffffffffffffffffffffffffffffffff1661100484610449565b73ffffffffffffffffffffffffffffffffffffffff16145b91505092915050565b8273ffffffffffffffffffffffffffffffffffffffff1661104582610626565b73ffffffffffffffffffffffffffffffffffffffff161461109b576040517f08c379a000000000000000000000000000000000000000000000000000000000815260040161109290612b32565b60405180910390fd5b600073ffffffffffffffffffffffffffffffffffffffff168273ffffffffffffffffffffffffffffffffffffffff160361110a576040517f08c379a000000000000000000000000000000000000000000000000000000000815260040161110190612bc4565b60405180910390fd5b611115838383611a0a565b611120600082610ed7565b6001600360008573ffffffffffffffffffffffffffffffffffffffff1673ffffffffffffffffffffffffffffffffffffffff16815260200190815260200160002060008282546111709190612be4565b925050819055506001600360008473ffffffffffffffffffffffffffffffffffffffff1673ffffffffffffffffffffffffffffffffffffffff16815260200190815260200160002060008282546111c79190612c18565b92505081905550816002600083815260200190815260200160002060006101000a81548173ffffffffffffffffffffffffffffffffffffffff021916908373ffffffffffffffffffffffffffffffffffffffff160217905550808273ffffffffffffffffffffffffffffffffffffffff168473ffffffffffffffffffffffffffffffffffffffff167fddf252ad1be2c89b69c2b068fc378daa952ba7f163c4a11628f55a4df523b3ef60405160405180910390a4611286838383611a0f565b505050565b8173ffffffffffffffffffffffffffffffffffffffff168373ffffffffffffffffffffffffffffffffffffffff16036112f9576040517f08c379a00000000000000000000000000000000000000000000000000000000081526004016112f090612cba565b60405180910390fd5b80600560008573ffffffffffffffffffffffffffffffffffffffff1673ffffffffffffffffffffffffffffffffffffffff16815260200190815260200160002060008473ffffffffffffffffffffffffffffffffffffffff1673ffffffffffffffffffffffffffffffffffffffff16815260200190815260200160002060006101000a81548160ff0219169083151502179055508173ffffffffffffffffffffffffffffffffffffffff168373ffffffffffffffffffffffffffffffffffffffff167f17307eab39ab6107e8899845ad3d59bd9653f200f220920489ca2b5937696c31836040516113ea9190611f49565b60405180910390a3505050565b6060600682600581111561140e5761140d6128b2565b5b60ff16111561141c57600080fd5b81600581111561142f5761142e6128b2565b5b60006005811115611443576114426128b2565b5b03611485576040518060400160405280600681526020017f5055424c494300000000000000000000000000000000000000000000000000008152509050611662565b816005811115611498576114976128b2565b5b600160058111156114ac576114ab6128b2565b5b036114ee576040518060400160405280600981526020017f4558434c555349564500000000000000000000000000000000000000000000008152509050611662565b816005811115611501576115006128b2565b5b60026005811115611515576115146128b2565b5b03611557576040518060400160405280600a81526020017f434f4d4d45524349414c000000000000000000000000000000000000000000008152509050611662565b81600581111561156a576115696128b2565b5b6003600581111561157e5761157d6128b2565b5b036115c0576040518060400160405280601281526020017f434f4d4d45524349414c5f4e4f5f4841544500000000000000000000000000008152509050611662565b8160058111156115d3576115d26128b2565b5b600460058111156115e7576115e66128b2565b5b03611629576040518060400160405280600881526020017f504552534f4e414c0000000000000000000000000000000000000000000000008152509050611662565b6040518060400160405280601081526020017f504552534f4e414c5f4e4f5f484154450000000000000000000000000000000081525090505b919050565b611672848484611025565b61167e84848484611a14565b6116bd576040517f08c379a00000000000000000000000000000000000000000000000000000000081526004016116b490612d4c565b60405180910390fd5b50505050565b60606000820361170a576040518060400160405280600181526020017f3000000000000000000000000000000000000000000000000000000000000000815250905061181e565b600082905060005b6000821461173c57808061172590612a48565b915050600a826117359190612d9b565b9150611712565b60008167ffffffffffffffff8111156117585761175761226a565b5b6040519080825280601f01601f19166020018201604052801561178a5781602001600182028036833780820191505090505b5090505b60008514611817576001826117a39190612be4565b9150600a856117b29190612dcc565b60306117be9190612c18565b60f81b8183815181106117d4576117d3612dfd565b5b60200101907effffffffffffffffffffffffffffffffffffffffffffffffffffffffffffff1916908160001a905350600a856118109190612d9b565b945061178e565b8093505050505b919050565b606060405180602001604052806000815250905090565b606061184582610e84565b600061184f611823565b9050600081511161186f576040518060200160405280600081525061189a565b80611879846116c3565b60405160200161188a92919061291d565b6040516020818303038152906040525b915050919050565b6118bc828260405180602001604052806000815250611b9b565b5050565b6118c98261199e565b611908576040517f08c379a00000000000000000000000000000000000000000000000000000000081526004016118ff90612e9e565b60405180910390fd5b8060066000848152602001908152602001600020908051906020019061192f929190611df2565b505050565b60007f01ffc9a7000000000000000000000000000000000000000000000000000000007bffffffffffffffffffffffffffffffffffffffffffffffffffffffff1916827bffffffffffffffffffffffffffffffffffffffffffffffffffffffff1916149050919050565b60008073ffffffffffffffffffffffffffffffffffffffff166002600084815260200190815260200160002060009054906101000a900473ffffffffffffffffffffffffffffffffffffffff1673ffffffffffffffffffffffffffffffffffffffff1614159050919050565b505050565b505050565b6000611a358473ffffffffffffffffffffffffffffffffffffffff16611bf6565b15611b8e578373ffffffffffffffffffffffffffffffffffffffff1663150b7a02611a5e610ecf565b8786866040518563ffffffff1660e01b8152600401611a809493929190612f13565b6020604051808303816000875af1925050508015611abc57506040513d601f19601f82011682018060405250810190611ab99190612f74565b60015b611b3e573d8060008114611aec576040519150601f19603f3d011682016040523d82523d6000602084013e611af1565b606091505b506000815103611b36576040517f08c379a0000000000000000000000000000000000000000000000000000000008152600401611b2d90612d4c565b60405180910390fd5b805181602001fd5b63150b7a0260e01b7bffffffffffffffffffffffffffffffffffffffffffffffffffffffff1916817bffffffffffffffffffffffffffffffffffffffffffffffffffffffff191614915050611b93565b600190505b949350505050565b611ba58383611c19565b611bb26000848484611a14565b611bf1576040517f08c379a0000000000000000000000000000000000000000000000000000000008152600401611be890612d4c565b60405180910390fd5b505050565b6000808273ffffffffffffffffffffffffffffffffffffffff163b119050919050565b600073ffffffffffffffffffffffffffffffffffffffff168273ffffffffffffffffffffffffffffffffffffffff1603611c88576040517f08c379a0000000000000000000000000000000000000000000000000000000008152600401611c7f90612fed565b60405180910390fd5b611c918161199e565b15611cd1576040517f08c379a0000000000000000000000000000000000000000000000000000000008152600401611cc890613059565b60405180910390fd5b611cdd60008383611a0a565b6001600360008473ffffffffffffffffffffffffffffffffffffffff1673ffffffffffffffffffffffffffffffffffffffff1681526020019081526020016000206000828254611d2d9190612c18565b92505081905550816002600083815260200190815260200160002060006101000a81548173ffffffffffffffffffffffffffffffffffffffff021916908373ffffffffffffffffffffffffffffffffffffffff160217905550808273ffffffffffffffffffffffffffffffffffffffff16600073ffffffffffffffffffffffffffffffffffffffff167fddf252ad1be2c89b69c2b068fc378daa952ba7f163c4a11628f55a4df523b3ef60405160405180910390a4611dee60008383611a0f565b5050565b828054611dfe906125cd565b90600052602060002090601f016020900481019282611e205760008555611e67565b82601f10611e3957805160ff1916838001178555611e67565b82800160010185558215611e67579182015b82811115611e66578251825591602001919060010190611e4b565b5b509050611e749190611e78565b5090565b5b80821115611e91576000816000905550600101611e79565b5090565b6000604051905090565b600080fd5b600080fd5b60007fffffffff0000000000000000000000000000000000000000000000000000000082169050919050565b611ede81611ea9565b8114611ee957600080fd5b50565b600081359050611efb81611ed5565b92915050565b600060208284031215611f1757611f16611e9f565b5b6000611f2584828501611eec565b91505092915050565b60008115159050919050565b611f4381611f2e565b82525050565b6000602082019050611f5e6000830184611f3a565b92915050565b600081519050919050565b600082825260208201905092915050565b60005b83811015611f9e578082015181840152602081019050611f83565b83811115611fad576000848401525b50505050565b6000601f19601f8301169050919050565b6000611fcf82611f64565b611fd98185611f6f565b9350611fe9818560208601611f80565b611ff281611fb3565b840191505092915050565b600060208201905081810360008301526120178184611fc4565b905092915050565b6000819050919050565b6120328161201f565b811461203d57600080fd5b50565b60008135905061204f81612029565b92915050565b60006020828403121561206b5761206a611e9f565b5b600061207984828501612040565b91505092915050565b600073ffffffffffffffffffffffffffffffffffffffff82169050919050565b60006120ad82612082565b9050919050565b6120bd816120a2565b82525050565b60006020820190506120d860008301846120b4565b92915050565b6120e7816120a2565b81146120f257600080fd5b50565b600081359050612104816120de565b92915050565b6000806040838503121561212157612120611e9f565b5b600061212f858286016120f5565b925050602061214085828601612040565b9150509250929050565b60008060006060848603121561216357612162611e9f565b5b6000612171868287016120f5565b9350506020612182868287016120f5565b925050604061219386828701612040565b9150509250925092565b6000602082840312156121b3576121b2611e9f565b5b60006121c1848285016120f5565b91505092915050565b6121d38161201f565b82525050565b60006020820190506121ee60008301846121ca565b92915050565b6121fd81611f2e565b811461220857600080fd5b50565b60008135905061221a816121f4565b92915050565b6000806040838503121561223757612236611e9f565b5b6000612245858286016120f5565b92505060206122568582860161220b565b9150509250929050565b600080fd5b600080fd5b7f4e487b7100000000000000000000000000000000000000000000000000000000600052604160045260246000fd5b6122a282611fb3565b810181811067ffffffffffffffff821117156122c1576122c061226a565b5b80604052505050565b60006122d4611e95565b90506122e08282612299565b919050565b600067ffffffffffffffff821115612300576122ff61226a565b5b61230982611fb3565b9050602081019050919050565b82818337600083830152505050565b6000612338612333846122e5565b6122ca565b90508281526020810184848401111561235457612353612265565b5b61235f848285612316565b509392505050565b600082601f83011261237c5761237b612260565b5b813561238c848260208601612325565b91505092915050565b600080600080608085870312156123af576123ae611e9f565b5b60006123bd878288016120f5565b94505060206123ce878288016120f5565b93505060406123df87828801612040565b925050606085013567ffffffffffffffff811115612400576123ff611ea4565b5b61240c87828801612367565b91505092959194509250565b600067ffffffffffffffff8211156124335761243261226a565b5b61243c82611fb3565b9050602081019050919050565b600061245c61245784612418565b6122ca565b90508281526020810184848401111561247857612477612265565b5b612483848285612316565b509392505050565b600082601f8301126124a05761249f612260565b5b81356124b0848260208601612449565b91505092915050565b600080604083850312156124d0576124cf611e9f565b5b60006124de858286016120f5565b925050602083013567ffffffffffffffff8111156124ff576124fe611ea4565b5b61250b8582860161248b565b9150509250929050565b6000806040838503121561252c5761252b611e9f565b5b600061253a858286016120f5565b925050602061254b858286016120f5565b9150509250929050565b60006020828403121561256b5761256a611e9f565b5b600082013567ffffffffffffffff81111561258957612588611ea4565b5b6125958482850161248b565b91505092915050565b7f4e487b7100000000000000000000000000000000000000000000000000000000600052602260045260246000fd5b600060028204905060018216806125e557607f821691505b6020821081036125f8576125f761259e565b5b50919050565b7f4552433732313a20617070726f76616c20746f2063757272656e74206f776e6560008201527f7200000000000000000000000000000000000000000000000000000000000000602082015250565b600061265a602183611f6f565b9150612665826125fe565b604082019050919050565b600060208201905081810360008301526126898161264d565b9050919050565b7f4552433732313a20617070726f76652063616c6c6572206973206e6f7420746f60008201527f6b656e206f776e6572206e6f7220617070726f76656420666f7220616c6c0000602082015250565b60006126ec603e83611f6f565b91506126f782612690565b604082019050919050565b6000602082019050818103600083015261271b816126df565b9050919050565b7f4552433732313a2063616c6c6572206973206e6f7420746f6b656e206f776e6560008201527f72206e6f7220617070726f766564000000000000000000000000000000000000602082015250565b600061277e602e83611f6f565b915061278982612722565b604082019050919050565b600060208201905081810360008301526127ad81612771565b9050919050565b7f4552433732313a20696e76616c696420746f6b656e2049440000000000000000600082015250565b60006127ea601883611f6f565b91506127f5826127b4565b602082019050919050565b60006020820190508181036000830152612819816127dd565b9050919050565b7f4552433732313a2061646472657373207a65726f206973206e6f74206120766160008201527f6c6964206f776e65720000000000000000000000000000000000000000000000602082015250565b600061287c602983611f6f565b915061288782612820565b604082019050919050565b600060208201905081810360008301526128ab8161286f565b9050919050565b7f4e487b7100000000000000000000000000000000000000000000000000000000600052602160045260246000fd5b600081905092915050565b60006128f782611f64565b61290181856128e1565b9350612911818560208601611f80565b80840191505092915050565b600061292982856128ec565b915061293582846128ec565b91508190509392505050565b7f63616c6c6572206973206e6f742063726561746f720000000000000000000000600082015250565b6000612977601583611f6f565b915061298282612941565b602082019050919050565b600060208201905081810360008301526129a68161296a565b9050919050565b7f5265656e7472616e637947756172643a207265656e7472616e742063616c6c00600082015250565b60006129e3601f83611f6f565b91506129ee826129ad565b602082019050919050565b60006020820190508181036000830152612a12816129d6565b9050919050565b7f4e487b7100000000000000000000000000000000000000000000000000000000600052601160045260246000fd5b6000612a538261201f565b91507fffffffffffffffffffffffffffffffffffffffffffffffffffffffffffffffff8203612a8557612a84612a19565b5b600182019050919050565b6000604082019050612aa560008301856121ca565b8181036020830152612ab78184611fc4565b90509392505050565b7f4552433732313a207472616e736665722066726f6d20696e636f72726563742060008201527f6f776e6572000000000000000000000000000000000000000000000000000000602082015250565b6000612b1c602583611f6f565b9150612b2782612ac0565b604082019050919050565b60006020820190508181036000830152612b4b81612b0f565b9050919050565b7f4552433732313a207472616e7366657220746f20746865207a65726f2061646460008201527f7265737300000000000000000000000000000000000000000000000000000000602082015250565b6000612bae602483611f6f565b9150612bb982612b52565b604082019050919050565b60006020820190508181036000830152612bdd81612ba1565b9050919050565b6000612bef8261201f565b9150612bfa8361201f565b925082821015612c0d57612c0c612a19565b5b828203905092915050565b6000612c238261201f565b9150612c2e8361201f565b9250827fffffffffffffffffffffffffffffffffffffffffffffffffffffffffffffffff03821115612c6357612c62612a19565b5b828201905092915050565b7f4552433732313a20617070726f766520746f2063616c6c657200000000000000600082015250565b6000612ca4601983611f6f565b9150612caf82612c6e565b602082019050919050565b60006020820190508181036000830152612cd381612c97565b9050919050565b7f4552433732313a207472616e7366657220746f206e6f6e20455243373231526560008201527f63656976657220696d706c656d656e7465720000000000000000000000000000602082015250565b6000612d36603283611f6f565b9150612d4182612cda565b604082019050919050565b60006020820190508181036000830152612d6581612d29565b9050919050565b7f4e487b7100000000000000000000000000000000000000000000000000000000600052601260045260246000fd5b6000612da68261201f565b9150612db18361201f565b925082612dc157612dc0612d6c565b5b828204905092915050565b6000612dd78261201f565b9150612de28361201f565b925082612df257612df1612d6c565b5b828206905092915050565b7f4e487b7100000000000000000000000000000000000000000000000000000000600052603260045260246000fd5b7f45524337323155524953746f726167653a2055524920736574206f66206e6f6e60008201527f6578697374656e7420746f6b656e000000000000000000000000000000000000602082015250565b6000612e88602e83611f6f565b9150612e9382612e2c565b604082019050919050565b60006020820190508181036000830152612eb781612e7b565b9050919050565b600081519050919050565b600082825260208201905092915050565b6000612ee582612ebe565b612eef8185612ec9565b9350612eff818560208601611f80565b612f0881611fb3565b840191505092915050565b6000608082019050612f2860008301876120b4565b612f3560208301866120b4565b612f4260408301856121ca565b8181036060830152612f548184612eda565b905095945050505050565b600081519050612f6e81611ed5565b92915050565b600060208284031215612f8a57612f89611e9f565b5b6000612f9884828501612f5f565b91505092915050565b7f4552433732313a206d696e7420746f20746865207a65726f2061646472657373600082015250565b6000612fd7602083611f6f565b9150612fe282612fa1565b602082019050919050565b6000602082019050818103600083015261300681612fca565b9050919050565b7f4552433732313a20746f6b656e20616c7265616479206d696e74656400000000600082015250565b6000613043601c83611f6f565b915061304e8261300d565b602082019050919050565b6000602082019050818103600083015261307281613036565b905091905056fe61723a2f2f7a6d63315754737049684679565938326277664149634945784c4648356c55634848554e307758673457382fa2646970667358221220005ca53db46fb65722649cc9a1a62afa074157eeed494077674de8450b6e100b64736f6c634300080d0033",
  "linkReferences": {},
  "deployedLinkReferences": {}
}